{
  "contractName": "XMan",
  "abi": [
    {
      "inputs": [],
      "stateMutability": "nonpayable",
      "type": "constructor"
    },
    {
      "anonymous": false,
      "inputs": [
        {
          "indexed": true,
          "internalType": "address",
          "name": "owner",
          "type": "address"
        },
        {
          "indexed": true,
          "internalType": "address",
          "name": "spender",
          "type": "address"
        },
        {
          "indexed": false,
          "internalType": "uint256",
          "name": "value",
          "type": "uint256"
        }
      ],
      "name": "Approval",
      "type": "event"
    },
    {
      "anonymous": false,
      "inputs": [
        {
          "indexed": false,
          "internalType": "string",
          "name": "name",
          "type": "string"
        },
        {
          "indexed": false,
          "internalType": "uint256",
          "name": "dna",
          "type": "uint256"
        }
      ],
      "name": "NewXMan",
      "type": "event"
    },
    {
      "anonymous": false,
      "inputs": [
        {
          "indexed": true,
          "internalType": "address",
          "name": "oldOwner",
          "type": "address"
        },
        {
          "indexed": true,
          "internalType": "address",
          "name": "newOwner",
          "type": "address"
        }
      ],
      "name": "OwnerSet",
      "type": "event"
    },
    {
      "anonymous": false,
      "inputs": [
        {
          "indexed": true,
          "internalType": "address",
          "name": "from",
          "type": "address"
        },
        {
          "indexed": true,
          "internalType": "address",
          "name": "to",
          "type": "address"
        },
        {
          "indexed": false,
          "internalType": "uint256",
          "name": "value",
          "type": "uint256"
        }
      ],
      "name": "Transfer",
      "type": "event"
    },
    {
      "inputs": [],
      "name": "SUPPLY",
      "outputs": [
        {
          "internalType": "uint256",
          "name": "",
          "type": "uint256"
        }
      ],
      "stateMutability": "view",
      "type": "function",
      "constant": true
    },
    {
      "inputs": [
        {
          "internalType": "address",
          "name": "owner",
          "type": "address"
        },
        {
          "internalType": "address",
          "name": "spender",
          "type": "address"
        }
      ],
      "name": "allowance",
      "outputs": [
        {
          "internalType": "uint256",
          "name": "",
          "type": "uint256"
        }
      ],
      "stateMutability": "view",
      "type": "function",
      "constant": true
    },
    {
      "inputs": [
        {
          "internalType": "address",
          "name": "spender",
          "type": "address"
        },
        {
          "internalType": "uint256",
          "name": "amount",
          "type": "uint256"
        }
      ],
      "name": "approve",
      "outputs": [
        {
          "internalType": "bool",
          "name": "",
          "type": "bool"
        }
      ],
      "stateMutability": "nonpayable",
      "type": "function"
    },
    {
      "inputs": [
        {
          "internalType": "address",
          "name": "account",
          "type": "address"
        }
      ],
      "name": "balanceOf",
      "outputs": [
        {
          "internalType": "uint256",
          "name": "",
          "type": "uint256"
        }
      ],
      "stateMutability": "view",
      "type": "function",
      "constant": true
    },
    {
      "inputs": [],
      "name": "decimals",
      "outputs": [
        {
          "internalType": "uint8",
          "name": "",
          "type": "uint8"
        }
      ],
      "stateMutability": "view",
      "type": "function",
      "constant": true
    },
    {
      "inputs": [
        {
          "internalType": "address",
          "name": "spender",
          "type": "address"
        },
        {
          "internalType": "uint256",
          "name": "subtractedValue",
          "type": "uint256"
        }
      ],
      "name": "decreaseAllowance",
      "outputs": [
        {
          "internalType": "bool",
          "name": "",
          "type": "bool"
        }
      ],
      "stateMutability": "nonpayable",
      "type": "function"
    },
    {
      "inputs": [
        {
          "internalType": "address",
          "name": "spender",
          "type": "address"
        },
        {
          "internalType": "uint256",
          "name": "addedValue",
          "type": "uint256"
        }
      ],
      "name": "increaseAllowance",
      "outputs": [
        {
          "internalType": "bool",
          "name": "",
          "type": "bool"
        }
      ],
      "stateMutability": "nonpayable",
      "type": "function"
    },
    {
      "inputs": [],
      "name": "name",
      "outputs": [
        {
          "internalType": "string",
          "name": "",
          "type": "string"
        }
      ],
      "stateMutability": "view",
      "type": "function",
      "constant": true
    },
    {
      "inputs": [],
      "name": "symbol",
      "outputs": [
        {
          "internalType": "string",
          "name": "",
          "type": "string"
        }
      ],
      "stateMutability": "view",
      "type": "function",
      "constant": true
    },
    {
      "inputs": [],
      "name": "totalSupply",
      "outputs": [
        {
          "internalType": "uint256",
          "name": "",
          "type": "uint256"
        }
      ],
      "stateMutability": "view",
      "type": "function",
      "constant": true
    },
    {
      "inputs": [
        {
          "internalType": "address",
          "name": "recipient",
          "type": "address"
        },
        {
          "internalType": "uint256",
          "name": "amount",
          "type": "uint256"
        }
      ],
      "name": "transfer",
      "outputs": [
        {
          "internalType": "bool",
          "name": "",
          "type": "bool"
        }
      ],
      "stateMutability": "nonpayable",
      "type": "function"
    },
    {
      "inputs": [
        {
          "internalType": "address",
          "name": "sender",
          "type": "address"
        },
        {
          "internalType": "address",
          "name": "recipient",
          "type": "address"
        },
        {
          "internalType": "uint256",
          "name": "amount",
          "type": "uint256"
        }
      ],
      "name": "transferFrom",
      "outputs": [
        {
          "internalType": "bool",
          "name": "",
          "type": "bool"
        }
      ],
      "stateMutability": "nonpayable",
      "type": "function"
    },
    {
      "inputs": [
        {
          "internalType": "address",
          "name": "",
          "type": "address"
        },
        {
          "internalType": "uint256",
          "name": "",
          "type": "uint256"
        }
      ],
      "name": "xMenToOwner",
      "outputs": [
        {
          "internalType": "string",
          "name": "name",
          "type": "string"
        },
        {
          "internalType": "uint256",
          "name": "dna",
          "type": "uint256"
        }
      ],
      "stateMutability": "view",
      "type": "function",
      "constant": true
    },
    {
      "inputs": [
        {
          "internalType": "uint256",
          "name": "",
          "type": "uint256"
        }
      ],
      "name": "xmen",
      "outputs": [
        {
          "internalType": "string",
          "name": "name",
          "type": "string"
        },
        {
          "internalType": "uint256",
          "name": "dna",
          "type": "uint256"
        }
      ],
      "stateMutability": "view",
      "type": "function",
      "constant": true
    },
    {
      "inputs": [],
      "name": "GetOwner",
      "outputs": [
        {
          "internalType": "address",
          "name": "",
          "type": "address"
        }
      ],
      "stateMutability": "view",
      "type": "function",
      "constant": true
    },
    {
      "inputs": [
        {
          "internalType": "address",
          "name": "newOwner",
          "type": "address"
        }
      ],
      "name": "SetOwner",
      "outputs": [],
      "stateMutability": "nonpayable",
      "type": "function"
    },
    {
      "inputs": [
        {
          "internalType": "uint256",
          "name": "index",
          "type": "uint256"
        }
      ],
      "name": "ReturnXMan",
      "outputs": [
        {
          "internalType": "string",
          "name": "",
          "type": "string"
        },
        {
          "internalType": "uint256",
          "name": "",
          "type": "uint256"
        }
      ],
      "stateMutability": "view",
      "type": "function",
      "constant": true
    },
    {
      "inputs": [],
      "name": "GetXManCount",
      "outputs": [
        {
          "internalType": "uint256",
          "name": "",
          "type": "uint256"
        }
      ],
      "stateMutability": "view",
      "type": "function",
      "constant": true
    },
    {
      "inputs": [
        {
          "internalType": "string",
          "name": "name",
          "type": "string"
        },
        {
          "internalType": "uint256",
          "name": "amount",
          "type": "uint256"
        }
      ],
      "name": "CreateRandomXMan",
      "outputs": [],
      "stateMutability": "payable",
      "type": "function",
      "payable": true
    }
  ],
  "bytecode": "0x6080604052620f424060055560106006556064600755600654600a62000026919062000553565b6008553480156200003657600080fd5b506040518060400160405280600881526020017f546f6d546f6b656e0000000000000000000000000000000000000000000000008152506040518060400160405280600381526020017f544d5400000000000000000000000000000000000000000000000000000000008152508160039080519060200190620000bb92919062000348565b508060049080519060200190620000d492919062000348565b505050620000e7620001c060201b60201c565b50620000fc33600554620001c560201b60201c565b33600960006101000a81548173ffffffffffffffffffffffffffffffffffffffff021916908373ffffffffffffffffffffffffffffffffffffffff160217905550600960009054906101000a900473ffffffffffffffffffffffffffffffffffffffff1673ffffffffffffffffffffffffffffffffffffffff16600073ffffffffffffffffffffffffffffffffffffffff167f342827c97908e5e2f71151c08502a66d44b6f758e3ac2f1de95f02eb95f0a73560405160405180910390a36200073b565b600090565b600073ffffffffffffffffffffffffffffffffffffffff168273ffffffffffffffffffffffffffffffffffffffff16141562000238576040517f08c379a00000000000000000000000000000000000000000000000000000000081526004016200022f906200044b565b60405180910390fd5b6200024c600083836200033e60201b60201c565b80600260008282546200026091906200049b565b92505081905550806000808473ffffffffffffffffffffffffffffffffffffffff1673ffffffffffffffffffffffffffffffffffffffff1681526020019081526020016000206000828254620002b791906200049b565b925050819055508173ffffffffffffffffffffffffffffffffffffffff16600073ffffffffffffffffffffffffffffffffffffffff167fddf252ad1be2c89b69c2b068fc378daa952ba7f163c4a11628f55a4df523b3ef836040516200031e91906200046d565b60405180910390a36200033a600083836200034360201b60201c565b5050565b505050565b505050565b82805462000356906200069a565b90600052602060002090601f0160209004810192826200037a5760008555620003c6565b82601f106200039557805160ff1916838001178555620003c6565b82800160010185558215620003c6579182015b82811115620003c5578251825591602001919060010190620003a8565b5b509050620003d59190620003d9565b5090565b5b80821115620003f4576000816000905550600101620003da565b5090565b600062000407601f836200048a565b91507f45524332303a206d696e7420746f20746865207a65726f2061646472657373006000830152602082019050919050565b620004458162000690565b82525050565b600060208201905081810360008301526200046681620003f8565b9050919050565b60006020820190506200048460008301846200043a565b92915050565b600082825260208201905092915050565b6000620004a88262000690565b9150620004b58362000690565b9250827fffffffffffffffffffffffffffffffffffffffffffffffffffffffffffffffff03821115620004ed57620004ec620006d0565b5b828201905092915050565b6000808291508390505b60018511156200054a57808604811115620005225762000521620006d0565b5b6001851615620005325780820291505b808102905062000542856200072e565b945062000502565b94509492505050565b6000620005608262000690565b91506200056d8362000690565b92506200059c7fffffffffffffffffffffffffffffffffffffffffffffffffffffffffffffffff8484620005a4565b905092915050565b600082620005b6576001905062000689565b81620005c6576000905062000689565b8160018114620005df5760028114620005ea5762000620565b600191505062000689565b60ff841115620005ff57620005fe620006d0565b5b8360020a915084821115620006195762000618620006d0565b5b5062000689565b5060208310610133831016604e8410600b84101617156200065a5782820a905083811115620006545762000653620006d0565b5b62000689565b620006698484846001620004f8565b92509050818404811115620006835762000682620006d0565b5b81810290505b9392505050565b6000819050919050565b60006002820490506001821680620006b357607f821691505b60208210811415620006ca57620006c9620006ff565b5b50919050565b7f4e487b7100000000000000000000000000000000000000000000000000000000600052601160045260246000fd5b7f4e487b7100000000000000000000000000000000000000000000000000000000600052602260045260246000fd5b60008160011c9050919050565b612008806200074b6000396000f3fe6080604052600436106101145760003560e01c80634fc19218116100a0578063a9059cbb11610064578063a9059cbb146103f1578063aaff3c081461042e578063c50497ae1461046c578063dd62ed3e14610497578063e26aef73146104d457610114565b80634fc19218146102e357806370a082311461030e57806374f8bb851461034b57806395d89b4114610389578063a457c2d7146103b457610114565b806318160ddd116100e757806318160ddd146101d557806323b872dd146102005780632e8ded171461023d578063313ce5671461027b57806339509351146102a657610114565b806306fdde0314610119578063095ea7b3146101445780630ae50a3914610181578063167d3e9c146101ac575b600080fd5b34801561012557600080fd5b5061012e6104f0565b60405161013b9190611b57565b60405180910390f35b34801561015057600080fd5b5061016b60048036038101906101669190611661565b610582565b6040516101789190611b3c565b60405180910390f35b34801561018d57600080fd5b506101966105a0565b6040516101a39190611b21565b60405180910390f35b3480156101b857600080fd5b506101d360048036038101906101ce91906115ad565b6105ca565b005b3480156101e157600080fd5b506101ea61071a565b6040516101f79190611cc9565b60405180910390f35b34801561020c57600080fd5b5061022760048036038101906102229190611612565b610724565b6040516102349190611b3c565b60405180910390f35b34801561024957600080fd5b50610264600480360381019061025f91906116f1565b61081c565b604051610272929190611b79565b60405180910390f35b34801561028757600080fd5b506102906108d8565b60405161029d9190611ce4565b60405180910390f35b3480156102b257600080fd5b506102cd60048036038101906102c89190611661565b6108dd565b6040516102da9190611b3c565b60405180910390f35b3480156102ef57600080fd5b506102f8610989565b6040516103059190611cc9565b60405180910390f35b34801561031a57600080fd5b50610335600480360381019061033091906115ad565b6109d8565b6040516103429190611cc9565b60405180910390f35b34801561035757600080fd5b50610372600480360381019061036d91906116f1565b610a20565b604051610380929190611b79565b60405180910390f35b34801561039557600080fd5b5061039e610b6d565b6040516103ab9190611b57565b60405180910390f35b3480156103c057600080fd5b506103db60048036038101906103d69190611661565b610bff565b6040516103e89190611b3c565b60405180910390f35b3480156103fd57600080fd5b5061041860048036038101906104139190611661565b610cea565b6040516104259190611b3c565b60405180910390f35b34801561043a57600080fd5b5061045560048036038101906104509190611661565b610d08565b604051610463929190611b79565b60405180910390f35b34801561047857600080fd5b50610481610dd1565b60405161048e9190611cc9565b60405180910390f35b3480156104a357600080fd5b506104be60048036038101906104b991906115d6565b610dd7565b6040516104cb9190611cc9565b60405180910390f35b6104ee60048036038101906104e9919061169d565b610e5e565b005b6060600380546104ff90611e74565b80601f016020809104026020016040519081016040528092919081815260200182805461052b90611e74565b80156105785780601f1061054d57610100808354040283529160200191610578565b820191906000526020600020905b81548152906001019060200180831161055b57829003601f168201915b5050505050905090565b600061059661058f610eec565b8484610ef4565b6001905092915050565b6000600960009054906101000a900473ffffffffffffffffffffffffffffffffffffffff16905090565b600960009054906101000a900473ffffffffffffffffffffffffffffffffffffffff1673ffffffffffffffffffffffffffffffffffffffff163373ffffffffffffffffffffffffffffffffffffffff161461065a576040517f08c379a000000000000000000000000000000000000000000000000000000000815260040161065190611c09565b60405180910390fd5b80600960006101000a81548173ffffffffffffffffffffffffffffffffffffffff021916908373ffffffffffffffffffffffffffffffffffffffff1602179055508073ffffffffffffffffffffffffffffffffffffffff16600960009054906101000a900473ffffffffffffffffffffffffffffffffffffffff1673ffffffffffffffffffffffffffffffffffffffff167f342827c97908e5e2f71151c08502a66d44b6f758e3ac2f1de95f02eb95f0a73560405160405180910390a350565b6000600254905090565b60006107318484846110bf565b6000600160008673ffffffffffffffffffffffffffffffffffffffff1673ffffffffffffffffffffffffffffffffffffffff168152602001908152602001600020600061077c610eec565b73ffffffffffffffffffffffffffffffffffffffff1673ffffffffffffffffffffffffffffffffffffffff168152602001908152602001600020549050828110156107fc576040517f08c379a00000000000000000000000000000000000000000000000000000000081526004016107f390611c29565b60405180910390fd5b61081085610808610eec565b858403610ef4565b60019150509392505050565b600a818154811061082c57600080fd5b906000526020600020906002020160009150905080600001805461084f90611e74565b80601f016020809104026020016040519081016040528092919081815260200182805461087b90611e74565b80156108c85780601f1061089d576101008083540402835291602001916108c8565b820191906000526020600020905b8154815290600101906020018083116108ab57829003601f168201915b5050505050908060010154905082565b600090565b600061097f6108ea610eec565b8484600160006108f8610eec565b73ffffffffffffffffffffffffffffffffffffffff1673ffffffffffffffffffffffffffffffffffffffff16815260200190815260200160002060008873ffffffffffffffffffffffffffffffffffffffff1673ffffffffffffffffffffffffffffffffffffffff1681526020019081526020016000205461097a9190611d87565b610ef4565b6001905092915050565b600080600c60003373ffffffffffffffffffffffffffffffffffffffff1673ffffffffffffffffffffffffffffffffffffffff1681526020019081526020016000209050808054905091505090565b60008060008373ffffffffffffffffffffffffffffffffffffffff1673ffffffffffffffffffffffffffffffffffffffff168152602001908152602001600020549050919050565b6060600080600c60003373ffffffffffffffffffffffffffffffffffffffff1673ffffffffffffffffffffffffffffffffffffffff16815260200190815260200160002090506000818581548110610aa1577f4e487b7100000000000000000000000000000000000000000000000000000000600052603260045260246000fd5b9060005260206000209060020201604051806040016040529081600082018054610aca90611e74565b80601f0160208091040260200160405190810160405280929190818152602001828054610af690611e74565b8015610b435780601f10610b1857610100808354040283529160200191610b43565b820191906000526020600020905b815481529060010190602001808311610b2657829003601f168201915b50505050508152602001600182015481525050905080600001518160200151935093505050915091565b606060048054610b7c90611e74565b80601f0160208091040260200160405190810160405280929190818152602001828054610ba890611e74565b8015610bf55780601f10610bca57610100808354040283529160200191610bf5565b820191906000526020600020905b815481529060010190602001808311610bd857829003601f168201915b5050505050905090565b60008060016000610c0e610eec565b73ffffffffffffffffffffffffffffffffffffffff1673ffffffffffffffffffffffffffffffffffffffff16815260200190815260200160002060008573ffffffffffffffffffffffffffffffffffffffff1673ffffffffffffffffffffffffffffffffffffffff16815260200190815260200160002054905082811015610ccb576040517f08c379a0000000000000000000000000000000000000000000000000000000008152600401610cc290611ca9565b60405180910390fd5b610cdf610cd6610eec565b85858403610ef4565b600191505092915050565b6000610cfe610cf7610eec565b84846110bf565b6001905092915050565b600c6020528160005260406000208181548110610d2457600080fd5b906000526020600020906002020160009150915050806000018054610d4890611e74565b80601f0160208091040260200160405190810160405280929190818152602001828054610d7490611e74565b8015610dc15780601f10610d9657610100808354040283529160200191610dc1565b820191906000526020600020905b815481529060010190602001808311610da457829003601f168201915b5050505050908060010154905082565b60055481565b6000600160008473ffffffffffffffffffffffffffffffffffffffff1673ffffffffffffffffffffffffffffffffffffffff16815260200190815260200160002060008373ffffffffffffffffffffffffffffffffffffffff1673ffffffffffffffffffffffffffffffffffffffff16815260200190815260200160002054905092915050565b600754811015610ea3576040517f08c379a0000000000000000000000000000000000000000000000000000000008152600401610e9a90611c69565b60405180910390fd5b610ecf600960009054906101000a900473ffffffffffffffffffffffffffffffffffffffff1682610cea565b506000610edb83611340565b9050610ee78382611385565b505050565b600033905090565b600073ffffffffffffffffffffffffffffffffffffffff168373ffffffffffffffffffffffffffffffffffffffff161415610f64576040517f08c379a0000000000000000000000000000000000000000000000000000000008152600401610f5b90611c89565b60405180910390fd5b600073ffffffffffffffffffffffffffffffffffffffff168273ffffffffffffffffffffffffffffffffffffffff161415610fd4576040517f08c379a0000000000000000000000000000000000000000000000000000000008152600401610fcb90611bc9565b60405180910390fd5b80600160008573ffffffffffffffffffffffffffffffffffffffff1673ffffffffffffffffffffffffffffffffffffffff16815260200190815260200160002060008473ffffffffffffffffffffffffffffffffffffffff1673ffffffffffffffffffffffffffffffffffffffff168152602001908152602001600020819055508173ffffffffffffffffffffffffffffffffffffffff168373ffffffffffffffffffffffffffffffffffffffff167f8c5be1e5ebec7d5bd14f71427d1e84f3dd0314c0f7b2291e5b200ac8c7c3b925836040516110b29190611cc9565b60405180910390a3505050565b600073ffffffffffffffffffffffffffffffffffffffff168373ffffffffffffffffffffffffffffffffffffffff16141561112f576040517f08c379a000000000000000000000000000000000000000000000000000000000815260040161112690611c49565b60405180910390fd5b600073ffffffffffffffffffffffffffffffffffffffff168273ffffffffffffffffffffffffffffffffffffffff16141561119f576040517f08c379a000000000000000000000000000000000000000000000000000000000815260040161119690611ba9565b60405180910390fd5b6111aa83838361146e565b60008060008573ffffffffffffffffffffffffffffffffffffffff1673ffffffffffffffffffffffffffffffffffffffff16815260200190815260200160002054905081811015611230576040517f08c379a000000000000000000000000000000000000000000000000000000000815260040161122790611be9565b60405180910390fd5b8181036000808673ffffffffffffffffffffffffffffffffffffffff1673ffffffffffffffffffffffffffffffffffffffff16815260200190815260200160002081905550816000808573ffffffffffffffffffffffffffffffffffffffff1673ffffffffffffffffffffffffffffffffffffffff16815260200190815260200160002060008282546112c39190611d87565b925050819055508273ffffffffffffffffffffffffffffffffffffffff168473ffffffffffffffffffffffffffffffffffffffff167fddf252ad1be2c89b69c2b068fc378daa952ba7f163c4a11628f55a4df523b3ef846040516113279190611cc9565b60405180910390a361133a848484611473565b50505050565b600080826040516020016113549190611b0a565b6040516020818303038152906040528051906020012060001c90506008548161137d9190611ea6565b915050919050565b6000600c60003373ffffffffffffffffffffffffffffffffffffffff1673ffffffffffffffffffffffffffffffffffffffff16815260200190815260200160002090508060405180604001604052808581526020018481525090806001815401808255809150506001900390600052602060002090600202016000909190919091506000820151816000019080519060200190611423929190611478565b506020820151816001015550507f8034b65a077ea8f378ca5b81894bbdc30fcd75d877c5d64816a21100034c31c78383604051611461929190611b79565b60405180910390a1505050565b505050565b505050565b82805461148490611e74565b90600052602060002090601f0160209004810192826114a657600085556114ed565b82601f106114bf57805160ff19168380011785556114ed565b828001600101855582156114ed579182015b828111156114ec5782518255916020019190600101906114d1565b5b5090506114fa91906114fe565b5090565b5b808211156115175760008160009055506001016114ff565b5090565b600061152e61152984611d30565b611cff565b90508281526020810184848401111561154657600080fd5b611551848285611e32565b509392505050565b60008135905061156881611fa4565b92915050565b600082601f83011261157f57600080fd5b813561158f84826020860161151b565b91505092915050565b6000813590506115a781611fbb565b92915050565b6000602082840312156115bf57600080fd5b60006115cd84828501611559565b91505092915050565b600080604083850312156115e957600080fd5b60006115f785828601611559565b925050602061160885828601611559565b9150509250929050565b60008060006060848603121561162757600080fd5b600061163586828701611559565b935050602061164686828701611559565b925050604061165786828701611598565b9150509250925092565b6000806040838503121561167457600080fd5b600061168285828601611559565b925050602061169385828601611598565b9150509250929050565b600080604083850312156116b057600080fd5b600083013567ffffffffffffffff8111156116ca57600080fd5b6116d68582860161156e565b92505060206116e785828601611598565b9150509250929050565b60006020828403121561170357600080fd5b600061171184828501611598565b91505092915050565b61172381611ddd565b82525050565b61173281611def565b82525050565b600061174382611d60565b61174d8185611d6b565b935061175d818560208601611e41565b61176681611f93565b840191505092915050565b600061177c82611d60565b6117868185611d7c565b9350611796818560208601611e41565b80840191505092915050565b60006117af602383611d6b565b91507f45524332303a207472616e7366657220746f20746865207a65726f206164647260008301527f65737300000000000000000000000000000000000000000000000000000000006020830152604082019050919050565b6000611815602283611d6b565b91507f45524332303a20617070726f766520746f20746865207a65726f20616464726560008301527f73730000000000000000000000000000000000000000000000000000000000006020830152604082019050919050565b600061187b602683611d6b565b91507f45524332303a207472616e7366657220616d6f756e742065786365656473206260008301527f616c616e636500000000000000000000000000000000000000000000000000006020830152604082019050919050565b60006118e1600d83611d6b565b91507f4f776e657220556e6b6e6f776e000000000000000000000000000000000000006000830152602082019050919050565b6000611921602883611d6b565b91507f45524332303a207472616e7366657220616d6f756e742065786365656473206160008301527f6c6c6f77616e63650000000000000000000000000000000000000000000000006020830152604082019050919050565b6000611987602583611d6b565b91507f45524332303a207472616e736665722066726f6d20746865207a65726f20616460008301527f64726573730000000000000000000000000000000000000000000000000000006020830152604082019050919050565b60006119ed601383611d6b565b91507f31303020546f6b656e73205265717569726564000000000000000000000000006000830152602082019050919050565b6000611a2d602483611d6b565b91507f45524332303a20617070726f76652066726f6d20746865207a65726f2061646460008301527f72657373000000000000000000000000000000000000000000000000000000006020830152604082019050919050565b6000611a93602583611d6b565b91507f45524332303a2064656372656173656420616c6c6f77616e63652062656c6f7760008301527f207a65726f0000000000000000000000000000000000000000000000000000006020830152604082019050919050565b611af581611e1b565b82525050565b611b0481611e25565b82525050565b6000611b168284611771565b915081905092915050565b6000602082019050611b36600083018461171a565b92915050565b6000602082019050611b516000830184611729565b92915050565b60006020820190508181036000830152611b718184611738565b905092915050565b60006040820190508181036000830152611b938185611738565b9050611ba26020830184611aec565b9392505050565b60006020820190508181036000830152611bc2816117a2565b9050919050565b60006020820190508181036000830152611be281611808565b9050919050565b60006020820190508181036000830152611c028161186e565b9050919050565b60006020820190508181036000830152611c22816118d4565b9050919050565b60006020820190508181036000830152611c4281611914565b9050919050565b60006020820190508181036000830152611c628161197a565b9050919050565b60006020820190508181036000830152611c82816119e0565b9050919050565b60006020820190508181036000830152611ca281611a20565b9050919050565b60006020820190508181036000830152611cc281611a86565b9050919050565b6000602082019050611cde6000830184611aec565b92915050565b6000602082019050611cf96000830184611afb565b92915050565b6000604051905081810181811067ffffffffffffffff82111715611d2657611d25611f64565b5b8060405250919050565b600067ffffffffffffffff821115611d4b57611d4a611f64565b5b601f19601f8301169050602081019050919050565b600081519050919050565b600082825260208201905092915050565b600081905092915050565b6000611d9282611e1b565b9150611d9d83611e1b565b9250827fffffffffffffffffffffffffffffffffffffffffffffffffffffffffffffffff03821115611dd257611dd1611ed7565b5b828201905092915050565b6000611de882611dfb565b9050919050565b60008115159050919050565b600073ffffffffffffffffffffffffffffffffffffffff82169050919050565b6000819050919050565b600060ff82169050919050565b82818337600083830152505050565b60005b83811015611e5f578082015181840152602081019050611e44565b83811115611e6e576000848401525b50505050565b60006002820490506001821680611e8c57607f821691505b60208210811415611ea057611e9f611f35565b5b50919050565b6000611eb182611e1b565b9150611ebc83611e1b565b925082611ecc57611ecb611f06565b5b828206905092915050565b7f4e487b7100000000000000000000000000000000000000000000000000000000600052601160045260246000fd5b7f4e487b7100000000000000000000000000000000000000000000000000000000600052601260045260246000fd5b7f4e487b7100000000000000000000000000000000000000000000000000000000600052602260045260246000fd5b7f4e487b7100000000000000000000000000000000000000000000000000000000600052604160045260246000fd5b6000601f19601f8301169050919050565b611fad81611ddd565b8114611fb857600080fd5b50565b611fc481611e1b565b8114611fcf57600080fd5b5056fea2646970667358221220aa3cf9fa19e57b9e2098f2a481ed7e2dafe0df859fdf1a8ea59664e9273f552564736f6c63430008000033",
  "immutableReferences": {},
  "source": "// SPDX-License-Identifier: GPL-3.0\r\n\r\npragma solidity ^0.8.0;\r\n\r\nimport \"./TomToken.sol\";\r\n\r\ncontract XMan is TomToken {\r\n\r\n    uint256 digDNA = 16;\r\n    uint XManTokenCost = 100;\r\n    uint modDNA = 10 ** digDNA;\r\n\r\n    address private owner;\r\n    event NewXMan(string name, uint dna);\r\n    event OwnerSet (address indexed oldOwner, address indexed newOwner);\r\n\r\n    struct xManStr {\r\n        string name;\r\n        uint dna;\r\n    }\r\n\r\n    xManStr[] public xmen;\r\n\r\n    mapping (address => uint) ownerXManCount;\r\n    mapping (address => xManStr[]) public xMenToOwner;\r\n\r\n    constructor() {\r\n        owner = msg.sender;\r\n        emit OwnerSet(address(0), owner);\r\n    }\r\n\r\n    modifier IsOwner() {\r\n        require(msg.sender == owner, \"Owner Unknown\");\r\n        _;\r\n    }\r\n\r\n    function GetOwner() external view returns (address) {\r\n        return owner;\r\n    }\r\n\r\n    function SetOwner(address newOwner) public IsOwner {\r\n        owner = newOwner;\r\n        emit OwnerSet(owner, newOwner);\r\n    }\r\n\r\n    function CreateXMan(string memory name, uint dna) internal {\r\n        xManStr[] storage xMenOwner = xMenToOwner[msg.sender];\r\n        xMenOwner.push(xManStr(name, dna));\r\n        emit NewXMan(name, dna);\r\n    }\r\n\r\n    function ReturnXMan(uint index) external view returns (string memory, uint) {\r\n        xManStr[] storage xMenOwner = xMenToOwner[msg.sender];\r\n        xManStr memory xMan = xMenOwner[index];\r\n        return (xMan.name ,xMan.dna);\r\n    }\r\n\r\n    function GetXManCount() external view returns (uint) {\r\n        xManStr[] storage xMenOwner = xMenToOwner[msg.sender];\r\n        return xMenOwner.length;\r\n    }\r\n\r\n    function CreateRandomXMan(string memory name, uint amount) public payable{\r\n        require(amount >= XManTokenCost, \"100 Tokens Required\");\r\n\r\n        transfer(owner, amount);\r\n\r\n        uint randomDNA = GenerateRandomDNA(name);\r\n        CreateXMan(name, randomDNA);\r\n    }\r\n\r\n    function GenerateRandomDNA(string memory _str) private view returns (uint) {\r\n        uint random = uint(keccak256(abi.encodePacked(_str)));\r\n        return random % modDNA;\r\n    }\r\n}",
  "sourcePath": "C:\\Users\\Thomas Buttigieg\\Documents\\GitHub\\ThomButtMSD6.3B_CryptoHome\\contracts\\XMan.sol",
  "compiler": {
    "name": "solc",
    "version": "0.8.0+commit.c7dfd78e.Emscripten.clang"
  },
  "schemaVersion": "3.4.4",
  "updatedAt": "2022-01-28T22:32:38.096Z",
  "networkType": "ethereum",
  "devdoc": {
    "kind": "dev",
    "methods": {
      "allowance(address,address)": {
        "details": "See {IERC20-allowance}."
      },
      "approve(address,uint256)": {
        "details": "See {IERC20-approve}. Requirements: - `spender` cannot be the zero address."
      },
      "balanceOf(address)": {
        "details": "See {IERC20-balanceOf}."
      },
      "decimals()": {
        "details": "Returns the number of decimals used to get its user representation. For example, if `decimals` equals `2`, a balance of `505` tokens should be displayed to a user as `5.05` (`505 / 10 ** 2`). Tokens usually opt for a value of 18, imitating the relationship between Ether and Wei. This is the value {ERC20} uses, unless this function is overridden; NOTE: This information is only used for _display_ purposes: it in no way affects any of the arithmetic of the contract, including {IERC20-balanceOf} and {IERC20-transfer}."
      },
      "decreaseAllowance(address,uint256)": {
        "details": "Atomically decreases the allowance granted to `spender` by the caller. This is an alternative to {approve} that can be used as a mitigation for problems described in {IERC20-approve}. Emits an {Approval} event indicating the updated allowance. Requirements: - `spender` cannot be the zero address. - `spender` must have allowance for the caller of at least `subtractedValue`."
      },
      "increaseAllowance(address,uint256)": {
        "details": "Atomically increases the allowance granted to `spender` by the caller. This is an alternative to {approve} that can be used as a mitigation for problems described in {IERC20-approve}. Emits an {Approval} event indicating the updated allowance. Requirements: - `spender` cannot be the zero address."
      },
      "name()": {
        "details": "Returns the name of the token."
      },
      "symbol()": {
        "details": "Returns the symbol of the token, usually a shorter version of the name."
      },
      "totalSupply()": {
        "details": "See {IERC20-totalSupply}."
      },
      "transfer(address,uint256)": {
        "details": "See {IERC20-transfer}. Requirements: - `recipient` cannot be the zero address. - the caller must have a balance of at least `amount`."
      },
      "transferFrom(address,address,uint256)": {
        "details": "See {IERC20-transferFrom}. Emits an {Approval} event indicating the updated allowance. This is not required by the EIP. See the note at the beginning of {ERC20}. Requirements: - `sender` and `recipient` cannot be the zero address. - `sender` must have a balance of at least `amount`. - the caller must have allowance for ``sender``'s tokens of at least `amount`."
      }
    },
    "version": 1
  },
  "userdoc": {
    "kind": "user",
    "methods": {},
    "version": 1
  }
}